{
  "contractName": "MyDeFiProject",
  "abi": [
    {
      "inputs": [
        {
          "internalType": "address",
          "name": "_dai",
          "type": "address"
        },
        {
          "internalType": "address",
          "name": "_cDai",
          "type": "address"
        }
      ],
      "stateMutability": "nonpayable",
      "type": "constructor"
    },
    {
      "inputs": [
        {
          "internalType": "uint256",
          "name": "_amount",
          "type": "uint256"
        }
      ],
      "name": "invest",
      "outputs": [],
      "stateMutability": "nonpayable",
      "type": "function"
    },
    {
      "inputs": [
        {
          "internalType": "uint256",
          "name": "_amount",
          "type": "uint256"
        }
      ],
      "name": "investEth",
      "outputs": [],
      "stateMutability": "nonpayable",
      "type": "function"
    },
    {
      "inputs": [
        {
          "internalType": "uint256",
          "name": "_amount",
          "type": "uint256"
        }
      ],
      "name": "cashOut",
      "outputs": [],
      "stateMutability": "nonpayable",
      "type": "function"
    }
  ],
  "bytecode": "0x608060405234801561001057600080fd5b506040516104f13803806104f18339818101604052604081101561003357600080fd5b810190808051906020019092919080519060200190929190505050816000806101000a81548173ffffffffffffffffffffffffffffffffffffffff021916908373ffffffffffffffffffffffffffffffffffffffff16021790555080600160006101000a81548173ffffffffffffffffffffffffffffffffffffffff021916908373ffffffffffffffffffffffffffffffffffffffff1602179055505050610411806100e06000396000f3fe608060405234801561001057600080fd5b50600436106100415760003560e01c80632afcf480146100465780635c7b79f514610074578063fcabb4d4146100a2575b600080fd5b6100726004803603602081101561005c57600080fd5b81019080803590602001909291905050506100d0565b005b6100a06004803603602081101561008a57600080fd5b8101908080359060200190929190505050610273565b005b6100ce600480360360208110156100b857600080fd5b8101908080359060200190929190505050610327565b005b60008054906101000a900473ffffffffffffffffffffffffffffffffffffffff1673ffffffffffffffffffffffffffffffffffffffff1663095ea7b3600160009054906101000a900473ffffffffffffffffffffffffffffffffffffffff16836040518363ffffffff1660e01b8152600401808373ffffffffffffffffffffffffffffffffffffffff16815260200182815260200192505050602060405180830381600087803b15801561018357600080fd5b505af1158015610197573d6000803e3d6000fd5b505050506040513d60208110156101ad57600080fd5b810190808051906020019092919050505050600160009054906101000a900473ffffffffffffffffffffffffffffffffffffffff1673ffffffffffffffffffffffffffffffffffffffff1663a0712d68826040518263ffffffff1660e01b815260040180828152602001915050602060405180830381600087803b15801561023457600080fd5b505af1158015610248573d6000803e3d6000fd5b505050506040513d602081101561025e57600080fd5b81019080805190602001909291905050505050565b600160009054906101000a900473ffffffffffffffffffffffffffffffffffffffff1673ffffffffffffffffffffffffffffffffffffffff1663db006a75826040518263ffffffff1660e01b815260040180828152602001915050602060405180830381600087803b1580156102e857600080fd5b505af11580156102fc573d6000803e3d6000fd5b505050506040513d602081101561031257600080fd5b81019080805190602001909291905050505050565b600160009054906101000a900473ffffffffffffffffffffffffffffffffffffffff1673ffffffffffffffffffffffffffffffffffffffff1663a0712d68826040518263ffffffff1660e01b815260040180828152602001915050602060405180830381600087803b15801561039c57600080fd5b505af11580156103b0573d6000803e3d6000fd5b505050506040513d60208110156103c657600080fd5b8101908080519060200190929190505050505056fea264697066735822122086796f9afddc71ae523d2c3de1202e8ecc3fa027730a67b30c5a5b53e344c74464736f6c634300060c0033",
  "immutableReferences": {},
  "source": "// SPDX-License-Identifier: MIT\npragma solidity ^0.6;\n\nimport \"@openzeppelin/contracts/token/ERC20/IERC20.sol\";\nimport \"./ComptrollerInterface.sol\";\nimport \"./CTokenInterfaces.sol\";\n\n//0x6b175474e89094c44da98b954eedeac495271d0f\ncontract MyDeFiProject {\n    IERC20 dai;\n    CTokenInterfaces cDai;\n\n    //ComptrollerInterface comptroller;\n\n    constructor(address _dai, address _cDai) public {\n        dai = IERC20(_dai);\n        cDai = CTokenInterfaces(_cDai);\n        //comptroller = ComptrollerInterface(_comptroller);\n    }\n\n    function invest(uint256 _amount) external {\n        dai.approve(address(cDai), _amount);\n        cDai.mint(_amount);\n    }\n\n    function investEth(uint256 _amount) external {\n        cDai.mint(_amount);\n    }\n\n    function cashOut(uint256 _amount) external {\n        cDai.redeem(_amount);\n    }\n\n    // function borrow() external {\n    //     dai.approve(address(cDai),2000);\n    //     cDai.mint(2000);\n    //     address[] markets = new address[](1);\n    //     comptroller.enterMarkets();\n\n    // }\n}\n",
  "sourcePath": "/Users/Mine/Desktop/EthDevt/Final-Project/contracts/MyDeFiProject.sol",
  "compiler": {
    "name": "solc",
    "version": "0.6.12+commit.27d51765.Emscripten.clang"
  },
  "schemaVersion": "3.2.5",
  "updatedAt": "2020-11-28T21:54:29.501Z",
  "networkType": "ethereum",
  "devdoc": {
    "kind": "dev",
    "methods": {},
    "version": 1
  },
  "userdoc": {
    "kind": "user",
    "methods": {},
    "version": 1
  }
}